:020000040800F2
:1000000090040020D5000008B51F0008F10D00087D
:1000100000000000000000000000000000000000E0
:10002000000000000000000000000000BF220008E7
:1000300000000000000000001921000883240008CF
:100040000501000805010008050100080501000878
:100050000501000805010008050100080501000868
:100060000501000805010008050100080501000858
:100070000501000805010008050100080501000848
:100080000501000805010008000000000501000846
:100090000501000805010008050100080501000828
:1000A0000501000805010008050100080501000818
:1000B0000501000800000000050100080000000024
:1000C0000348854600F0BEFC00480047B9350008EB
:1000D000900400200C4880F308880C480168090E41
:1000E0000B4A914205D10B480B4901600B480C4962
:1000F00001600C4880470C480047FEE7FEE7FEE73A
:10010000FEE7FEE7FEE70000900400200400000088
:100110001F00000018100240010000000000014014
:100120000000000085240008C100000830B50B461F
:10013000014600202022012409E00D46D5409D42C1
:1001400005D31D469540491B254695404019154647
:10015000521E002DF1DC30BD70B50024254600286C
:1001600001DA01244042002901DA01254942FFF762
:10017000DDFFAC4200D04042002C00D0494270BDAF
:10018000F0B51FB486B00020009001900290069850
:10019000069980B204900798090C020400141143D8
:1001A00007900027089D099806913E463C4603901B
:1001B0000398A9B20204000C039004982D0C154377
:1001C00048430021224600F0E5F9C7197141103477
:1001D0000E46402CECDB3846029A00F0DBF9009A20
:1001E000019B8018009059410298019110300290B3
:1001F0004028CCDB00980BB0F0BDF8B502464A4071
:10020000D40F42004B0052085B089A4202D20246C9
:10021000084611464A0023D0C30D4A00DDB2120E33
:10022000AD1A202D35DA49020126490AF6058A1948
:10023000002C00D0524220214F1B1146B9402A41C8
:100240001018C20D9A4221D0002C17D0012D08DCC5
:10025000DA05801AD20F8019D207DBB200F0C3F999
:10026000F8BDDA05801A012340001B06C01880186B
:100270005A428018CA0F1043490007E04908C207D4
:100280001143DA05801A80194008801800F0A3F99C
:10029000F8BD61000122511A001BF7E70122D207C5
:1002A0005140AAE70122D2075040A6E7024670B5A6
:1002B0004A40D30FDB0740002DD04A002AD0010E60
:1002C000140E000212020919400A520A8418E501AC
:1002D00004465443000A120A2E045043A41942193A
:1002E000200CC543AA18120C0125AD03521C52194B
:1002F00012047F39240400D0521C104301D4400062
:10030000491EC2B20C06C0092018401C4008802AB1
:1003100002D003E0002070BD40084000002900DA50
:100320000020184370BD70B502464A40D50F40000A
:100330004A00ED0740085208002814D0002A12D0C5
:10034000C40DD30D41020120C0055202490A520AD0
:10035000E41A091812187D34914201D3641C00E09C
:100360004900002C01DA002070BD0023914201D326
:10037000891A0343400849000028F7D100290AD010
:10038000914202D10121C90705E0914201D2012128
:1003900001E00121C943E005C018401900F01BF934
:1003A00070BD0000F0B51FB488B00B990998002407
:1003B00048400999C00F490049080991C0070B99A5
:1003C0000090490049080B9109990898A6460843EE
:1003D0001CD00B990A98084318D0099801244000B2
:1003E000420D4800410D099824050003000B2043ED
:1003F00009900B980003000B20430B9050181C49E8
:100400004018002201901446104605E000200146E5
:100410000DB0F0BD032801DA034600E003239C463B
:10042000C11A0AAE0AE05F0008ADED5B4F00F75B52
:100430007D430027AA187C41491C5B1E6145F2DD03
:10044000410004AB5A522104120C0A43240C401CF4
:100450000828DFDB01980290009970460191009016
:10046000059B049A0799069800F03BF9D0E7000035
:100470000DFCFFFFC217C10F504010B54018CA074E
:100480009623002100F0AFF810BD00000EB505491D
:100490000291002100910A460B46019100F021F9DA
:1004A00003B000BD330400004A0009030123090B17
:1004B0001B051943094B10B5520D9A4201DA002071
:1004C00010BD064B34339A4203DC9A1A00F072F8DE
:1004D00010BD03495118884010BD0000FF03000003
:1004E000CDFBFFFFC20FD207400040080BD0C10D6B
:1004F0000723DB01C91840020905400A1143C2085D
:100500004007114370470020014670470122D2077F
:10051000002800DB101A002900DB511A81427047C5
:100520000122D207002800DB101A002900DB511A33
:1005300088427047F0B51FB40646002082B00546D9
:100540004024019100901BE0019922460F4630465D
:1005500000F030F8049A059B801A994110D3104698
:100560001946224600F016F8361A8F4101972246A6
:1005700001200021009F00F00DF838184D41009037
:100580002046641E0028DFDC019B00982946324685
:1005900007B0F0BD10B5202A04DB0146203A914097
:1005A000002010BD914020239C1A0346E3401943CC
:1005B000904010BD10B5202A04DB0846203AD040F8
:1005C000002110BD0B46D340D0402024A21A9140F8
:1005D0000843194610BD002904DA401C490001D126
:1005E00040084000704770B40024050C05D1102469
:1005F000000402D1002921D01124050E01D10002EE
:100600000834050F01D10001241D850F01D18000A0
:10061000A41C002801DB4000641C002908D0202510
:100620002E1B0D46F540A14000D00121294308436F
:1006300001061B1B000ADB1D02D5002070BC7047A1
:10064000DB05181880180029F8DA401C4900F5D19C
:1006500070BC400840007047420005D04200120EB6
:1006600052428A4201DB00207047C90508187047D2
:1006700070B5002801DC002070BD41004002012659
:10068000400AF605090E8019CA0701D14000491E2B
:100690004D10002211463F353346CB409B18D418ED
:1006A000844201D8001B1A464000491C1729F3DD7B
:1006B0005100814202D20021C94300E00021E80537
:1006C0008018FFF788FF70BD10B5002B08DA0024F2
:1006D000401C614192185B411A4301D1400840001F
:1006E00010BDF0B51FB482B005460C0003D008461B
:1006F00002F09CF802E002F099F8203002460090E7
:1007000021462846FFF746FF049B059A04460F46FC
:1007100018431143084314D0184610431BD00098C7
:1007200040210A1A18460599FFF744FF05460E4670
:10073000009A05990498FFF72DFF084305D0012082
:1007400004E02046394607B0F0BD0020C11705433C
:100750000E432C43374300990E986305401A7905E0
:10076000E40A00220C43FD0A0A3002D500200146AB
:10077000E9E70105101969410C9C0D9D00196941BB
:10078000FFF7A2FFDFE70000F0B507460846584034
:1007900087B0C00F049048000E4659004008490831
:1007A000BC1A884105D2384631461E4617460B46CC
:1007B00002465800400810434CD0300D03904005CD
:1007C0005900400D490D0590401A0290402872DAF8
:1007D00018030121000B09050843019004980092B9
:1007E000002805D0019952420020884100920190D2
:1007F000029840210A1A01990098FFF7CBFE05469E
:100800000C466B4607CB00F02FF9C0197141039AD3
:100810000E0D0023D71756401A467A40164344D08F
:10082000049A002A2DD0029A012A039A15DC120597
:10083000C01A914101263605001C7141D20F059E58
:10084000D2070093019202962A462346FFF749FFFA
:1008500007B0F0BD38463146FAE71605224A0F4682
:10086000B218C01AB74101210905001C4F410018F8
:100870007F41114618187941E20F10436D19644108
:1008800013E0E2076D0815436408C2071443039A96
:1008900001261205C01A91413605001C7141CE0790
:1008A000400830434908C01851412A462346FFF703
:1008B0000BFFCDE7FFE7049801224000C117121A91
:1008C00000238B4104983146C417381AA141EEE742
:1008D00030B40124E407634030BC55E730B4012450
:1008E000E407614030BC4FE70000E0FFF0B50C4684
:1008F0005C4085B0E40FE40703944C0000266408D4
:1009000059009446490802460296224321D0624685
:100910000A431ED06200570D4A000E032303550DF3
:10092000012402462C492405781B1B0B360B40186A
:1009300023432643614600901C46501AB44103D31A
:100940000098401C009002E0921800985B4100283B
:1009500003DA0020014605B0F0BD002001210905A1
:100960000746864611E064461D46141BB54106D372
:100970006546521BB341744607430C43A646CD0758
:1009800040084908284392185B4105460D43EAD1C7
:100990001046184313D06046194650407140084332
:1009A00006D06046101AB34106D20122002306E0A9
:1009B00000220123DB0702E00122D24353100098FA
:1009C00074460105381C6141029C039D0019694170
:1009D000FFF77AFEBFE70000FD0300004A000903AD
:1009E0000123090B1B0519430A4B10B5520D9A42FE
:1009F00002DA0020014610BD064B34339A4203DC74
:100A00009A1AFFF7D7FD10BD034BD218FFF7C2FDAE
:100A100010BD0000FF030000CDFBFFFF10B5002953
:100A200004DB0124E40740428C412146002B04DB17
:100A30001C460123DB075242A341994200D1904258
:100A400010BD0000064C0125064E05E0E36807CC0A
:100A50002B430C3C98471034B442F7D3FFF734FBD8
:100A6000A4380008C438000810B5202A06DBCB17CC
:100A70000846203A1041C1170B4306E00B461341CC
:100A8000D0402024A21A91400843194610BD00000E
:100A9000F0B59FB000BF00210691079100BF029101
:100AA00003910020009000BF604800234168604827
:100AB0000089060E1A02324300020C1A93411D46A9
:100AC0005B484089002122462B460A950B940C91E5
:100AD0000D90FFF755FB4902C00D08437D21090128
:100AE000401854490860084600685349884237DA7C
:100AF000504800685149884232DD119410952046D3
:100B0000294622462B460E950F94FFF739FB4900E4
:100B1000C00F0843009047490968474A891A8A006C
:100B20008918444A1268444BD21A51430846C90FE7
:100B300009184910CA17079206913E4909681A46D2
:100B4000891A8A0089183B4A1268D21A514308460A
:100B5000C917890F09188910CA170392029100E07A
:100B600000BF334840880021020C0E0416430704DE
:100B70002F48C08822462B461A951B941C911D9025
:100B8000FFF7FEFA4A06C0091043C91138184E4152
:100B900009960890264800880021420CCE0316438F
:100BA000C7032348808822462B4616951794189130
:100BB0001990FFF7E5FA0A06000A104309123818DF
:100BC0004E410596049006A80DC80999181A91413E
:100BD00009910890174800680099401A1549086063
:100BE000049B029A039905989A1A884104920590E9
:100BF0000E4800230168049A059812AC0DC41591A3
:100C000008461946129BFFF7BBFACA02400D104373
:100C10004B1506461846099A0899711A90414204E4
:100C2000C80B1043064908601FB0F0BD1C0000202F
:100C30007800002024000020D007000024FAFFFFE5
:100C400028000020F0B50A4600210023002400BF40
:100C50003DE001258D402B4615681D402C469C42E9
:100C600034D11579012D02D01579022D16D1856860
:100C70004F000326BE40B543856055794E00B54010
:100C8000866835438560858801268E40B54385801A
:100C9000858896798E40B6B23543858005684F00C9
:100CA0000326BE40B543056015794E00B540066881
:100CB00035430560C5684F000326BE40B543C56097
:100CC000D5794E00B540C6683543C560491C10292A
:100CD000BFD3F0BDF0B5002300244D07EE0E15463E
:100CE000B5402B46CD10AE0005462035AD594E0718
:100CF000F70E0F26BE40B543CE10B600074620378C
:100D0000BD51CD10AE003D46AD591D432C46CD1012
:100D1000AD003E467451F0BD01857047816170475A
:100D200010B57021002000F02FF80021012000F004
:100D30002BF80021022000F027F810BD1CB5002080
:100D40000F4902230322009101903C210D4800F03D
:100D5000A1F800210A48801C02230722019100907B
:100D60003C21084800F096F800210548001D0223A8
:100D70000522019100903C21024800F08BF81CBD37
:100D8000380000200054004038B504460D4600BF2E
:100D90000121C903154800F039F80028F8D10120D5
:100DA0004003030302223C210090104800F0C8F8E1
:100DB00000BF02210D4800F029F80028F9D0214693
:100DC0000A4800F0BBF800BF0221084800F01EF8F6
:100DD0000028F9D02946054800F0B0F800BF2021CE
:100DE000024800F013F80028F9D038BD0054004044
:100DF00000BFFEE7002904D0026801231A43026005
:100E000003E00268520852000260704710B50246C3
:100E10000023002093691C460C402346002B01D080
:100E2000012000E0002010BD10B50A460021036833
:100E30005B085B0003600168144B1940946824024E
:100E400053682343194301600F2424061368A34306
:100E50000361036801242343036000218160C160B2
:100E60001469936923431946816083680124E4036C
:100E700023438360D16803680B4303604168044BDC
:100E8000194053691943416010BD0000FFE0CF00D5
:100E9000FF7FFF07FFB581B016461C460A9F00255D
:100EA00000BF0121C9030198FFF7B0FF0028F8D166
:100EB000012040030023012200900299019800F0D4
:100EC0003FF800BF02210198FFF7A0FF0028F9D0EA
:100ED0003146019800F032F80920800201235B06B8
:100EE000224600900299019800F02AF8002516E0A9
:100EF00000BF04210198FFF789FF0028F9D00B9863
:100F0000002806D1019800F015F8611B491E78549D
:100F100003E0019800F00EF87855681CC5B2A542B0
:100F2000E6DB00BF20210198FFF770FF0028F9D011
:100F300005B0F0BD0146486AC0B270478162704793
:100F4000F0B50C4600214168074D2940A505AD0DBF
:100F50001604FF273F043E4035431D43059E35439D
:100F600029434160F0BD0000009800FCF8B505463B
:100F70000E46144600BF0121C9032846FFF746FF6D
:100F80000028F8D1012040030303012231460090DC
:100F90002846FFF7D5FF00BF02212846FFF736FF9E
:100FA0000028F9D021462846FFF7C8FF00BF2021BE
:100FB0002846FFF72BFF0028F9D0F8BDFFB581B018
:100FC00015461E460A9F002400BF0121C90301984F
:100FD000FFF71CFF0028F8D1012040030090781C87
:100FE000C2B201235B0602990198FFF7A9FF00BF77
:100FF00002210198FFF70AFF0028F9D0294601983D
:10100000FFF79CFF00240CE000BF02210198FFF7CE
:10101000FDFE0028F9D0315D0198FFF78FFF601CBD
:10102000C4B2BC42F0DB00BF20210198FFF7EEFE06
:101030000028F9D005B0F0BD10B50121032040040F
:1010400001F06CF80121480501F078F8102001F05A
:1010500095F80121080301F081F80121E120C00287
:1010600001F07CF80121FF20133001F067F810BD7A
:101070001CB5002205210920C006FFF72BFE002227
:1010800006210920C006FFF725FE002207210920BE
:10109000C006FFF71FFE0221684601710021817121
:1010A0000221C17103214171E020009069460920AD
:1010B000C006FFF7C7FD022208210920C006FFF77E
:1010C00009FE02220921C806FFF704FE02220A21B6
:1010D0000920C006FFF7FEFD02220B210920C006F1
:1010E000FFF7F8FD0221684601710021817101219D
:1010F000C171032141710F2000020090694609204F
:10110000C006FFF79FFD01220E212148FFF7E2FDF7
:1011100001220F211E48FFF7DDFD02216846017103
:10112000002181710121C171032141718803009067
:1011300069461748FFF786FD012168460171C171B4
:101140001C20009069460920C006FFF77BFD1C218A
:101150000920C006FFF7E0FD012208210C48FFF737
:10116000B9FD012209210A48FFF7B4FD032000025E
:1011700000900221684601710321417100218171B3
:101180000121C17169460248FFF75CFD1CBD0000EA
:101190000004004800B587B001200005039000203E
:1011A00006900190022002900020049005900648CD
:1011B000009069460548FFF737FE01210348FFF715
:1011C00019FE07B000BD00003D279000005400400C
:1011D00000B585B000216846C18110218181FF21C1
:1011E000053141800021C1800181032189030180F3
:1011F000012149024181072109028180694607488E
:1012000001F022F801210903044801F049F8012105
:10121000024801F001F805B000BD000000300140B7
:1012200010B5FFF709FFFFF723FFFFF7D1FFFFF727
:10123000B1FF00F0C1FE00F0BDF900F0D1F800F000
:10124000CDF9FFF76DFD00F051F810BDF8B5064679
:101250000F4614463946304600F038F80821092078
:10126000C006FFF759FD10210920C006FFF756FD03
:101270001FE0002519E000BF0221124800F0DAFF4C
:101280000028F9D020782038062250430E4A8018D2
:10129000415D0C4801F00EF800BF8021094800F0C4
:1012A000C9FF0128F9D0681CC5B2062DE3DB641C18
:1012B00000BF20780028DCD108210920C006FFF7F4
:1012C0002DFDF8BD003001407A36000870B50446A7
:1012D0000D46402129430846002100F051F88021A5
:1012E00021430846002100F04BF870BD10B50024E2
:1012F00004210920C006FFF70FFD02F0F3F80421D6
:101300000920C006FFF70AFD08210920C006FFF7E3
:1013100003FD02F0E7F808210920C006FFF7FEFCF4
:1013200002F0E0F808210920C006FFF7F5FC1021C3
:101330000920C006FFF7F0FC00BF02210E4800F0B4
:1013400079FF0028F9D000240DE00C48015D0A481F
:1013500000F0B0FF00BF8021074800F06BFF0128BC
:10136000F9D0601CC4B2062CEFDB08210920C006AE
:10137000FFF7D4FC10BD00000030014074360008B7
:1013800070B504460D4608210920C006FFF7C4FCCD
:10139000002D05D110210920C006FFF7BDFC04E097
:1013A00010210920C006FFF7B9FC00BF02210B483D
:1013B00000F040FF0028F9D02146084800F07AFFED
:1013C00000BF8021054800F035FF0128F9D0082131
:1013D0000920C006FFF7A2FC70BD000000300140EC
:1013E0001CB5002101910191012001ABEB22D0211C
:1013F00000901748FFF7E2FD07210191012001ABA2
:101400001922D02100901248FFF7D8FD0421019144
:10141000012001AB1A22D02100900D48FFF7CEFD2C
:1014200010210191012001AB1B22D021009008481E
:10143000FFF7C4FD09210191012001AB1C22D0213D
:1014400000900348FFF7BAFD00F004F81CBD00004F
:10145000005400407CB5002632E0002500202149E0
:101460000223432200910190D0211F48FFF712FD73
:1014700000211C48801C0223452201910090D021AC
:101480001948FFF707FD00211648001D02234722D7
:1014900001910090D0211448FFF7FCFC00BF0BE045
:1014A000A8001249085869000E4A515E4018A90068
:1014B0000E4A5050681CC5B2032DF1DB701CC6B239
:1014C0000A2ECADB00240AE0A100084A50580A216B
:1014D000FEF742FEA100054A5050601CC4B2032C26
:1014E000F2DB7CBD3200002000540040840000206C
:1014F0001CB500202B4902233B2200910190D021F2
:101500002948FFF7C7FC00212648801C02233D2202
:1015100001910090D0212448FFF7BCFC0021214814
:10152000001D02233F2201910090D0211E48FFF7A9
:10153000B1FC00201D490223432200910190D021DB
:101540001948FFF7A7FC1948008819490988401A6B
:1015500000B21649088000211448801C022345224D
:1015600001910090D0211048FFF794FC0F4840886B
:101570000F498988401A00B20C49488000210B4865
:10158000001D0223472201910090D0210648FFF759
:1015900081FC0648808806490989401A00B203493F
:1015A00088801CBD2C000020005400403200002028
:1015B000840000200EB509200190002168460181B9
:1015C00004490180002141806946034801F0DCF8AC
:1015D0000EBD0000BF120000001000401CB500F05E
:1015E0000FFE00202A490223A02200910190EC2145
:1015F0002848FFF74FFC002027490223A222009130
:101600000190EC212348FFF745FC00212248801C73
:101610000223A42201910090EC211E48FFF73AFC1E
:1016200000211D48001D0223A62201910090EC21FB
:101630001848FFF72FFC00211748801D0223A8221D
:1016400001910090EC211348FFF724FC002112487F
:1016500008300223AA2201910090EC210D48FFF7E7
:1016600019FC00210C480A300223AC2201910090A1
:10167000EC210848FFF70EFC002008490223AE22A7
:1016800000910190EC210348FFF704FC1CBD000011
:101690001800002000540040780000201A000020AC
:1016A00010B504460E480F4908607F20C0050E495A
:1016B000086000200D4908600D4908600D49086068
:1016C0000D4908600D4908600D4908600D49087012
:1016D00021467F20C005FEF726FE0B49086010BD9D
:1016E0000000D841400000204400002048000020B5
:1016F0004C00002050000020540000205800002022
:101700005C0000207000002060000020F8B53B481D
:1017100001680068FEF7CAFD07463948016800689D
:10172000FEF7C4FD3F2109060090FEF7BBFD06460B
:101730003946FEF7B3FD0446324801682F48006879
:10174000FEF7B4FD06462E4801682F480068FEF7F4
:10175000ADFD07463146FEF750FD0546214601F036
:1017600093FD2A4908602548016827480068FEF76C
:101770009DFD06462348016821480068FEF796FD56
:1017800007463146FEF78AFD054603218907FEF725
:101790008DFD044601F0ECFC1D4908601948016804
:1017A0000068FEF783FD0090144801680068FEF7AA
:1017B0007DFD07463F210906FEF774FD06460099A8
:1017C000FEF76CFD04460F4801680F480068FEF7FD
:1017D0006DFD06460948016809480068FEF766FD88
:1017E00007463146FEF709FD0546214601F04CFD4E
:1017F00008490860012008490870F8BD4C00002025
:101800004800002050000020440000206400002018
:10181000680000206C00002070000020FEB5044627
:101820003F2109062046FEF741FD029025462E463F
:10183000701014490E1A354629460298FEF736FDF7
:1018400029460090FEF732FDFF2189050190FEF741
:1018500029FD07462946FEF729FD05462946029837
:10186000FEF724FD29460090FEF720FDFF218905A3
:101870000190FEF717FD07462946FEF717FD0546BE
:101880002846FEBDDF59375F0FB5A3B0FE49239848
:10189000FEF70CFD2390FC492498FEF707FD2490E9
:1018A000F9492598FEF702FD259000212698FEF7BC
:1018B0002DFE09D100212898FEF728FE04D1002131
:1018C0002998FEF723FE7DD029990846FEF7EEFC05
:1018D000069028990846FEF7E9FC049026990846E8
:1018E000FEF7E4FC03900499FEF787FC0590069947
:1018F000FEF783FC0790FFF791FF2290229926982C
:10190000FEF7D4FC269022992898FEF7CFFC289069
:1019100022992998FEF7CAFC29902C990846FEF7CF
:10192000C5FC06902B990846FEF7C0FC04902A9946
:101930000846FEF7BBFC03900499FEF75EFC059099
:101940000699FEF75AFC0790FFF768FF229022994C
:101950002A98FEF7ABFC2A9022992B98FEF7A6FC5A
:101960002B9022992C98FEF7A1FC2C90C748016877
:101970000068FEF79BFC2190C5480168C3480068D9
:10198000FEF794FC2090C3480168C0480068FEF749
:101990008DFC1F90C0480168BC480068FEF786FCBB
:1019A0001E90BB4801680068FEF780FC1D90B94896
:1019B0000168B7480068FEF779FC1C90B6480168DA
:1019C000B34800E0EEE10068FEF770FC1B90B14800
:1019D00001680068FEF76AFC1A90AF480168AD48DC
:1019E0000068FEF763FC1990AB4801680068FEF7D9
:1019F0005DFC18901F991B98FEF7FFFB04902C9933
:101A0000FEF754FC06901E991C98FEF747FC0290C6
:101A10002B99FEF74BFC04903F2000061A99FEF725
:101A20003DFC01901899FEF739FC02902A99FEF7C7
:101A30003DFC03900499FEF7E0FB05900699FEF744
:101A4000DCFB012189070790FEF730FC17902099F5
:101A50001998FEF723FC04902C99FEF727FC0690BA
:101A60003F2000061D99FEF719FC01901899FEF71A
:101A700015FC02902B99FEF719FC04901E991C98F6
:101A8000FEF7BBFB02902A99FEF710FC0390049925
:101A9000FEF7B3FB05900699FEF7AFFB012189071E
:101AA0000790FEF703FC169016990846FEF7FEFB1A
:101AB000069017990846FEF7F9FB05900699FEF780
:101AC0009CFB079001F0C0FD15903F2000061D997A
:101AD000FEF7E4FB03901A99FEF7E0FB04902C99C3
:101AE000FEF7E4FB069020991998FEF786FB02901A
:101AF0002B99FEF7DBFB04901F991B98FEF7CEFB9A
:101B000002902A99FEF7D2FB03900499FEF775FB29
:101B100005900699FEF771FB012189070790FEF7F2
:101B2000C5FB14901F991B98FEF7B8FB13901999E9
:101B30002098FEF762FB12903F2109062198FEF7DC
:101B4000ADFB07901899FEF758FB11901F991B9851
:101B5000FEF7A4FB05901499FEF7A8FB07903F2021
:101B600000061A99FEF79AFB04901899FEF796FB67
:101B700005901599FEF79AFB06900799FEF73DFB35
:101B8000109019992098FEF738FB05901499FEF7EC
:101B90008DFB07901E991C98FEF780FB0590159908
:101BA000FEF784FB06900799FEF727FB0F903F2076
:101BB00000061D99FEF772FB04901A99FEF76EFB62
:101BC00005901499FEF772FB07901B991F98FEF77A
:101BD00014FB05901599FEF769FB06900799FEF72F
:101BE0000CFB0E900F992C98FEF760FB05900E9958
:101BF0002B98FEF75BFB04900599FEF74FFB0790CF
:101C000012992998FEF752FB059011992898FEF732
:101C10004DFB04900599FEF741FB06900799FEF7EE
:101C2000ECFA0D900E992A98FEF740FB059010995A
:101C30002C98FEF73BFB04900599FEF72FFB0790CD
:101C400011992698FEF732FB059013992998FEF713
:101C50002DFB04900599FEF721FB06900799FEF7EE
:101C6000CCFA0C9010992B98FEF720FB05900F9959
:101C70002A98FEF71BFB04900599FEF70FFB0790CF
:101C8000139928980AE0000039FA8E3C440000209D
:101C9000480000204C00002050000020FEF706FB0A
:101CA000059012992698FEF701FB04900599FEF71E
:101CB000F5FA06900799FEF7A0FA0B900021B248BA
:101CC0000068FEF72DFC4BD2AF480D990068FEF777
:101CD000EDFA0690AD4801680698FEF7E7FA07901E
:101CE000AB4801680798FEF788FAA9490860A6483A
:101CF0000C990068FEF7DAFA0690A4480168069885
:101D0000FEF7D4FA0790A34801680798FEF775FA22
:101D1000A04908609C480B990068FEF7C7FA069036
:101D20009A4801680698FEF7C1FA07909A48016838
:101D30000798FEF762FA9849086095480168239869
:101D4000FEF75BFA2390934801682498FEF755FA52
:101D50002490914801682598FEF74FFA259006E0F7
:101D600000208B4908608B4908608B4908608B48CC
:101D70000D99FEF79BFA07902399FEF73EFA239000
:101D800086480C99FEF792FA07902499FEF735FAE7
:101D9000249082480B99FEF789FA07902599FEF75F
:101DA0002CFA2590794801683F200006FEF77EFA5C
:101DB00007902399FEF77AFA2390744801683F2030
:101DC0000006FEF773FA07902499FEF76FFA249045
:101DD0006E4801683F200006FEF768FA07902599D3
:101DE000FEF764FA25906E4800680A906D48006816
:101DF00009906D48006808906C4825990068FEF7C6
:101E000055FA069024990898FEF750FA049001219B
:101E1000C9070998484002902399FEF747FA0390B2
:101E20000499FEF73BFA05900699FEF737FA0790FA
:101E30005B4801680798FEF7E0F9594908605B487C
:101E400024990068FEF732FA069025990898FEF763
:101E50002DFA04900A992398FEF728FA0390049922
:101E6000FEF7CBF905900699FEF718FA07904D4852
:101E700001680798FEF7C1F94A4908604B480168B4
:101E80002398FEF713FA069025990998FEF70EFAA3
:101E9000049024990A98FEF709FA03900499FEF732
:101EA000FDF905900699FEF7A8F907903E480168EC
:101EB0000798FEF7A2F93C49086008992398FEF7B5
:101EC000F5F9069024990998FEF7F0F90490259900
:101ED0000A98FEF7EBF903900499FEF78EF9059046
:101EE0000699FEF7DBF90790304801680798FEF77E
:101EF00084F92E490860084601680068FEF7D6F9A3
:101F00000690294801680068FEF7D0F9049025483A
:101F100001680068FEF7CAF902902148016800686C
:101F2000FEF7C4F901900299FEF767F9039004994E
:101F3000FEF763F905900699FEF75FF90790FFF742
:101F40006DFC2290164822990068FEF7AFF91449FB
:101F50000860144822990068FEF7A8F91149086042
:101F6000114822990068FEF7A1F90F4908600F484F
:101F700022990068FEF79AF90C49086000200C4984
:101F8000087027B000BD0000400000206000002065
:101F900054000020580000205C0000200000704227
:101FA00044000020480000204C0000205000002089
:101FB0007000002070470000F0B589B04D494E48D0
:101FC0000068FEF7B3F8401E0790002168460184C0
:101FD0009F2101830021418308A8817006A94748F9
:101FE00000F0D2FB06A9464800F0CEFB70216846FF
:101FF00081800121C180002101810798FEF746FA06
:102000000646404A404BFEF7CDF90446FEF74CFA2F
:10201000039002216846018200214182FF210131A3
:1020200081820021C18201A9344800F089FA079811
:10203000FEF72CFA0646354A354BFEF7B3F904464F
:10204000FEF732FA039001A92C4800F0C3FA079872
:10205000FEF71CFA06462B4A2E4BFEF7A3F9044660
:10206000FEF722FA039001A9244800F009FB079823
:10207000FEF70CFA06460022FF239B05FEF792F9B5
:102080000446FEF711FA039001A91C4800F044FB36
:102090000798FEF7FBF904461A4A1B4BFEF782F934
:1020A0000646FEF701FA039001A9154800F048FA28
:1020B0000798FEF7EBF90446144A154BFEF772F940
:1020C0000646FEF7F1F9039001A90D4800F082FAE7
:1020D00001210A4800F014FA0121094800F010FA21
:1020E0000121064800F01AFA0121054800F016FA0D
:1020F00009B0F0BD80BB000004000020002C0140AE
:10210000004001409A9999999999A93F3333333303
:102110003333B33F9999B93F70470000002905D088
:10212000054A52690243044B5A6104E0024A52696B
:102130008243014B5A61704700100240002905D0CC
:10214000054AD2690243044BDA6104E0024AD269CB
:102150008243014BDA61704700100240002905D02C
:10216000054A92690243044B9A6104E0024A92696B
:102170008243014B9A617047001002400549096B88
:1021800010229143034A11631146096B0143116305
:1021900070470000001002401CB5002004490323D2
:1021A000024600910190EC210248FEF773FE1CBD2F
:1021B0001C0000200054004010B54822EC210248C9
:1021C000FEF7D4FE10BD0000005400401CB50021F5
:1021D000044803230A4601910090EC210248FEF7CF
:1021E00059FE1CBD200000200054004010B55822AC
:1021F000EC210248FEF7BAFE10BD0000005400407A
:1022000010B51E22EC210348FEF7B0FE042001F0B9
:102210006FF910BD00540040002904D0028840230B
:102220001A43028003E00288014B1A400280704783
:10223000BFFF00000246002013890B40002B01D095
:10224000012000E00020704710B500220288C12361
:102250009B011A400B88CC892343CC8823430C89EB
:1022600023434C8923438C8923431A430280828869
:10227000084B1A408B881A4382800B8A038202889B
:10228000054B1A404B881A430280838B034C234032
:10229000838310BDFFF00000FBFF0000FFF700008C
:1022A0008288034B1A40828082880A43828070476A
:1022B000FFEF0000002202460C3211707047704799
:1022C000F0B58BB000F0D4F8FFF776FFFFF710F908
:1022D000FEF734FD2C490420085EFEF7CBF80446D7
:1022E00029490220085EFEF7C5F805462649002068
:1022F000085EFEF7BFF8064624490420085EFEF794
:10230000B9F8074621490220085EFEF7B3F81F49D5
:102310000A900020085EFEF7ADF81D4909900420E0
:10232000085EFEF7A7F805901A4801680598FDF7C2
:10233000BDFF174908900220085EFEF79BF8059044
:10234000144801680598FDF7B1FF11490790002076
:10235000085EFEF78FF805900E4801680598FDF7B6
:10236000A5FF019702960395049406900A980090A1
:1023700006A80FC8FFF788FAFFF7C8F9FFF70CFFA8
:10238000FEF786FB0BB0F0BD380000202C000020CB
:1023900032000020000000200CB5002001900090C9
:1023A000314800680121090408432F49086000BF33
:1023B0002D48006801214904084000900198401C04
:1023C00001900098002804D1052109030198884252
:1023D000EED125480068012149040840002802D0B8
:1023E0000120009001E0002000900098012839D1E0
:1023F00011201E4908601C4840681B494860084677
:1024000040684860084640687F21C90388431649F0
:102410004860084640681121090408431249486091
:10242000084600680121090608430F49086000BFFB
:102430000D4800680121490608400028F8D00A48E4
:1024400040688008800008494860084640680221CA
:1024500008430549486000BF034840680C21084014
:102460000828F9D10CBD00000010024000200240F5
:1024700010B5FFF7BBFE022001F03AF8FFF7A6FE09
:1024800010BD704710B51B48006801210843194969
:1024900008600846406818490840164948600846E0
:1024A0000068164908401349086008460068012181
:1024B000890488430F490860084640683F210904A1
:1024C00088430C4948600846C06A00090001C86298
:1024D0000846006BFF2154318843064908630846CB
:1024E000406B40084000486300208860FFF754FFBD
:1024F00010BD0000001002400CB8FFF8FFFFF6FE10
:10250000002904D0028801231A43028003E00288D4
:10251000014B1A4002807047FEFF0000002907D0DF
:102520004422125A0123DB031A4344231A5205E0C2
:102530004422125A53045B0C442213527047000089
:1025400070B5002400220023058C1C4E3540058404
:10255000028C8388048B194D6F3D2C40B51E2C4096
:102560000D882C43751E2A408D892A434D882A43A5
:10257000134DA84208D0134DA84205D0124DA842D1
:1025800002D0124DA84212D10C4DED1F2A40CD8928
:102590002A430A4DED1E2A408D882A43074DFF3DF0
:1025A0002B400B4D2B400D8A2B434D8A2B438380B0
:1025B00004838D684563028470BD0000FEFF000047
:1025C000002C01400040014000440140004801400F
:1025D000FFFD000070B5002400220023058C214E71
:1025E00035400584028C8388048B1F4D2C401F4D81
:1025F0002C400D782D062D0C2C431A4D103D2A40F1
:102600008D892D052D0C2A434D882D052D0C2A432F
:10261000174DA84202D0174DA8421CD1164D2B4091
:102620000D8AAD042D0C2B43114DA84213D10D4D35
:10263000703D2A40CD892D052D0C2A43094D303D92
:102640002A408D882D052D0C2A430C4D2B404D8A98
:10265000AD042D0C2B43838004838D688563028435
:1026600070BD0000EFFF0000FF8F0000FFFC0000C6
:10267000002C014000400140FFFB0000FFF700007C
:1026800070B5002400220023058C1C4E35400584C3
:10269000028C8388848B194D90352C40174DFD3565
:1026A0002C400D882C43164D2A400D7B2D062D0CF9
:1026B0002A438D782D062D0C2A43124DA84217D19E
:1026C000114D2A408D7B2D062D0C2A430F4D2A409B
:1026D0000D792D062D0C2A430D4D2B400D4D2B4011
:1026E0000D8A2D052D0C2B434D8A2D052D0C2B43CA
:1026F000838084838D68C563028470BDFFFE000003
:10270000FFFD0000002C0140FFF70000FFFB000070
:10271000FFEF0000FFDF000070B50022002300245F
:10272000058C134E35400584038C8488828B114DB3
:102730002A40114D2A400D782D062D0C2A430F4DAD
:102740002B400D7B2D072D0C2B438D782D072D0C49
:102750002B430B4DA84205D10A4D2C400D8AAD05E7
:102760002D0C2C43848082838D680564038470BDA6
:10277000FFEF0000FF8F0000FFFC0000FFDF000004
:10278000002C0140FFBF000000220288154B984238
:1027900006D001239B07984202D0134B984203D1E5
:1027A000124B1A404B881A43114B984203D0114BDD
:1027B0001A400B891A4302804B68C3620B88038559
:1027C000084B984208D00C4B984205D00B4B9842CE
:1027D00002D00B4B984201D18B7A0386012383826E
:1027E00070470000002C0140000400408FFF0000F3
:1027F00000100040FFFC0000004001400044014088
:10280000004801400FB410B504A9074B02AA039871
:1028100000F00CF9044602A9002000F0A3FC2046B9
:1028200010BC08BC04B01847653100082021020C18
:1028300001D010211046020A01D0104608390209C1
:1028400001D01046091F820801D01046891E420897
:1028500001D0881E7047081A70474100080200D056
:1028600004200A0E01D001221043090EFF2901D1D4
:1028700002210843012800D10520704710B501212D
:10288000FDF7EAFE10BD10B5FDF7B7FC10BD10B5A1
:1028900000210846FDF747FD10BD5E2110B5C94374
:1028A0000807FDF7D9FE10BD02E008C8121F08C1D5
:1028B000002AFAD170477047002001E001C1121FC1
:1028C000002AFBD1704700000149086070470000F2
:1028D00074000020F0B51FB484B007980699020D6B
:1028E000014314D04A484B491018484305140F9827
:1028F00001280E981CD0281A401C0024464E474937
:10290000009401910290002814DA474227E00F98C2
:10291000012443A3012808D0002104980F9A846061
:102920000360C260416009B0F0BD0E98C143F4E796
:102930004042E2E7074612E0F80707D02246334656
:1029400001990098FDF72EFD019100902246334633
:1029500010461946FDF726FD04460E467F10002F4F
:10296000EAD10298019B0028009A0799069802DA9A
:10297000FDF718FD01E0FDF7B9FF04460E46002201
:10298000284BFEF74BF803D80020C043014607E070
:102990000022254B20463146FDF7F6FEFEF71EF8D5
:1029A000102409E0002C0ADB0A220023FDF7C2FDF7
:1029B000059B30321A55641E02460A43F2D1112299
:1029C000641C059B121B1C190F9B012B03D00123B8
:1029D00008430ED10AE0084304D011200E900020D5
:1029E0000F9084E70E98151A6D1E0BE00E98824228
:1029F00002DD00236D1C03E0824201DA00236D1E1C
:102A0000002BEED004980F998260C16030C08AE735
:102A100001FCFFFF104D0000000024400000F03FCB
:102A2000300000000000F0430000E03FFFB597B029
:102A30000646002518E2252877D100242746FD49BF
:102A4000049400E00443761C32780120203A904040
:102A50000842F7D130782A280ED002223078014679
:102A60003039092916D804990A23594330394018B6
:102A70001443761C0490F1E7189802C8049118904A
:102A8000002904DA01204003044348420490022054
:102A90000443761C30782E2814D104200443707827
:102AA000761C2A2809D11898761C80C8189009E04D
:102AB0000A214F43303FC719761C30780146303920
:102AC0000929F5D930786C2810D006DC4C281AD0AA
:102AD00068280ED06A2817D104E0742813D07A2809
:102AE00012D110E00120400504430CE0012109054A
:102AF00001E0032109050C437178814203D10120D3
:102B000000052418761C761C3078119066280BD0AE
:102B100013DC58287DD009DC00287BD04528F6D06E
:102B20004628F4D047281AD1A5E118E0632835D00B
:102B3000642870D0652812D19DE170286CD008DC23
:102B40006728F1D069287BD06E280DD06F2806D178
:102B5000BAE073282ED0752871D0782859D01A9AE7
:102B6000199990476D1C7EE16002400F022809D040
:102B700003280DD00428189801680DD00D60001DA1
:102B8000189070E11898EA1701680D604A60F6E73E
:102B9000189801680D80F2E70D70F0E718986A4602
:102BA00001781172001D18900020507202A8009048
:102BB000012005E0189802C8189000200091C04339
:102BC00061070DD5002101E00199491C0191B9422D
:102BD00012DA8142F8DB009A515C0029F4D10BE053
:102BE000002101E00199491C01918142FADB019A1F
:102BF0000099895C0029F5D1019904981A9B471A1C
:102C000021463846199A00F097FA0199401945185B
:102C10000BE04FE02CE113E04EE0009800990078C3
:102C2000491C00911A9A199990470198401E0190E9
:102C3000401CF2D1214638461A9B199A10E137E020
:102C40000A200021009001916002410F022907D063
:102C5000189A01CA1892C2179446032908D00AE0AC
:102C60001898C01DC108C90005C91891944607E00D
:102C700000B2C2179446042902D140B2C1178C4653
:102C800000226146944506DA0A46002140429141FD
:102C90008C462D2102E0210504D52B216A461173B3
:102CA000012103E0E10701D02021F7E7029155E07F
:102CB0000A200AE0102008E01020009000210420E3
:102CC00004430191082703E00820002101910090AE
:102CD0006002410F022907D0189A01CA18920022F7
:102CE0009446032908D008E01898C01DC108C900FF
:102CF00005C91891944603E080B2042900D1C0B2FE
:102D000000210291210729D51199702906D0009A36
:102D10001021019B4A401A4305D00EE040216A462B
:102D20001173012108E06146014306D030216A4653
:102D300011731199517302210291009A0821019B8C
:102D40004A401A430AD16146014301D1610705D5C2
:102D500030216A46117301217F1E02911199582971
:102D600004D035A10E910DA90D910DE037A1F9E721
:102D70006146019B009AFDF7DDFB0E9B8C469B5C38
:102D80000D9A521E0D92137061460143F0D10D98B9
:102D900005A9081A20300190600703D5012000041E
:102DA000844300E001270198874201DD381A00E0E2
:102DB0000020019900904118029809180498401ABF
:102DC0000490E00306D421461A9B199A049800F057
:102DD000B3F94519002706E003A81A9AC05D1999AE
:102DE00090476D1C7F1C02988742F5DBE0030CD5F1
:102DF00021461A9B199A049800F09EF9451904E09F
:102E00001A9A3020199990476D1C0099481E00901D
:102E10000029F5DC08E00D980D990078491C0D910A
:102E20001A9A199990476D1C0199481E0190002922
:102E3000F1DC63E1092801003031323334353637B3
:102E400038396162636465660000000030313233F6
:102E50003435363738394142434445460000000096
:102E600000F05AF94519761C3078002800D0E2E5C8
:102E700028461BB0F0BD600700D406271898C01D77
:102E8000C108C90048680A680831C30FDB071891F8
:102E9000190001D09CA108E0210501D59BA104E007
:102EA000E10701D09AA100E09AA1430011985B08C4
:102EB000109165280CD006DC452809D046281DD085
:102EC000472841D141E0662818D067283CD13CE032
:102ED0000021112F01DB112000E0781C01910090EE
:102EE00008A911A8FFF7F6FC139905910021119A82
:102EF00015927F1C12980197009150E00120C007A5
:102F000003900120019008A9009711A8FFF7E2FCA7
:102F1000139A149905920022119B0092129815930E
:102F2000059A0192002901D0104602E0791C401850
:102F30000190381A01D5019804E04042401E0090EB
:102F4000781C0190C01B029043E0012F00DA01279A
:102F50000021112F01DD112000E038460191009081
:102F600008A911A8FFF7B6FC13990591119A002141
:102F7000129815920091019721070CD40599B94236
:102F800001DB019900E00191012904DD159A491E38
:102F9000515C302906D0B84201DA011D05DA012161
:102FA000029115E00199491EEDE7002805DC009922
:102FB000411800910199091A03E0019A411C9142BC
:102FC00000DD01910099401A401C02900120C007C9
:102FD0000390200706D402990198814202DB002069
:102FE000C043029000206946C87707AF01210398CB
:102FF0000337C907884224D0022011902B20129059
:10300000039800280CDA404203902D20129007E02C
:103010000A210398FDF78AF830317F1E039039703A
:103020001199481E11900029F2DC03980028EFD175
:10303000791E129808703078202108404530BF1E54
:10304000387006A8C01BC01D039010980078002897
:1030500000D00120019941180298C017091803985F
:1030600009180498401A401E0490E00306D4214633
:103070001A9B199A049800F05FF845191098007887
:10308000002803D01A9A199990476D1CE00324D5A3
:1030900021461A9B199A049800F04EF845191CE035
:1030A0000098002807DB00990598884203DD1598F1
:1030B000405C199901E0199930201A9A90470098BC
:1030C0006D1C401C00900298401E0290002804D104
:1030D0001A9A2E20199990476D1C0199481E01904B
:1030E0000029DDDC05E038781A9A7F1C1999904791
:1030F0006D1C0399481E03900029F4DC21461A9B9D
:10310000199A0498ACE600002D0000002B00000086
:103110002000000000000000F8B5044600251E460F
:103120001746880404D405E039462020B0476D1CBA
:10313000641EF9D52846F8BDFFB50446002581B0C8
:103140001E46C80301D5302700E02027880404D597
:1031500005E038460399B0476D1C641EF9D5284632
:1031600005B0F0BD0A68531C0B601070704700007A
:10317000F8B504464721400049060D2241181206C1
:10318000914253D83F21490688421BD960007F21D4
:103190004008C905FDF786F80021C943FDF75CFA30
:1031A000074600F051FA002C04DA2F4D2D4EA907E6
:1031B000484001E02D4E2E4D03218907FDF776F89A
:1031C000044606E00026214635460846FDF76EF81F
:1031D000074628493846FDF769F82749FDF70DF8F5
:1031E0003946FDF763F82549FDF707F83946FDF73D
:1031F0005DF82349FDF701F83946FDF757F82149F5
:10320000FCF7FBFF009039462046FDF74FF8009988
:10321000FDF74CF8074629462046FCF7EEFF3946F5
:10322000FCF7EBFF3146FCF7E8FFF8BD3921490612
:10323000884208D22046FFF710FB042801D1FFF78F
:103240002CFB2046F8BDFF210906884203D9204601
:10325000FFF714FBF8BD0120FFF736FBFFF717FB64
:10326000F8BD00000000C9BF22AAFDB90000C93F97
:1032700022AAFD3924FE1C3DC78AD83C1E67383D72
:103280001B93993DAFAA2A3EF0B50C4601461D227C
:103290004B00D2069F18E52605463606620087B029
:1032A0002046B7427DD21D27FF06D719B74278D2F4
:1032B0004F0043003E0E1A0EB21A1B2A07DD0029EA
:1032C00002DA754807B0F0BD744807B0F0BD1A26A1
:1032D000F24217DA002807DA002902DA704807B04C
:1032E000F0BD704807B0F0BD21462846FDF71BF839
:1032F0000446FFF7B2FA042801D1FFF7CEFA2046C0
:1033000007B0F0BD9F4211D9002902DA664F674E1F
:1033100001E0674F674E23462C461D4601220346B7
:10332000D20708465440504019460BE0002807DAFF
:10333000002902DA604F614E04E0614F614E01E006
:1033400000263746421A012352001B069A4230D209
:1033500048405D490BD5BF20000603903846FCF776
:103360009DFF074659493046FCF798FF0AE03F2089
:10337000000603903846FCF740FF074653493046A5
:10338000FCF73BFF064628460399FCF78FFF2146D2
:10339000FCF733FF009021460398FCF787FF29468E
:1033A00000E03AE0FCF77EFF0099FCF7BCFF044622
:1033B00004E021462846FCF7B6FF04460146FCF728
:1033C00075FF43490090FCF771FF4249FCF715FF78
:1033D0000099FCF76BFF4049FCF70FFF0099FCF7E1
:1033E00065FF3E49FCF709FF0099FCF75FFF3C4988
:1033F000FCF703FF054620460099FCF757FF2946D6
:10340000FCF754FF3146FCF7F8FE2146FCF7F5FEC9
:103410003946FCF7F2FE07B0F0BDFF263606B34290
:1034200001D8B24205D901462846FFF72CFA07B069
:10343000F0BD2F4607437F000AD0B3420CD1B24201
:103440000AD101229207904391430D4604462FE78B
:10345000FF22D2051043F9E7B34208D0460006D058
:103460005340F4D4002A08DB9F26F60507E0FF222C
:10347000D2051143E00FC0071AE75F26F605314673
:103480002846FCF713FF054631462046FCF70EFFA1
:10349000044629460CE70000DB0FC9BFDB0FC93F1C
:1034A000DB0F49C0DB0F49400000C9BF22AAFDB9AC
:1034B0000000C93F22AAFD39000049C022AA7DBAF6
:1034C0000000494022AA7D3A0060ED3EC30ACE3793
:1034D0002DAD65BD8FB8D53D0FB511BE61C84C3E51
:1034E000A8AAAABE002000E0401C3028FCDB7047E0
:1034F0000F490988012211430D4A11800CE000BFD9
:103500000B49098AC907C90F0029F9D00849098A56
:1035100049084900064A11820146401E0029EED1A1
:103520000349098849084900014A11807047000091
:103530000010004010B506480078002801D1FEF7C1
:10354000E5F8044904480068FCF7B0FE10BD00002F
:1035500070000020E12E65426800002010B506488A
:103560000078002801D1FEF7D1F80449044800682A
:10357000FCF79CFE10BD000070000020E12E6542AB
:103580006400002010B508480078002801D1FEF73B
:10359000BDF8064906480068FCF788FE0446054960
:1035A000FCF72BFE10BD000070000020E12E6542EC
:1035B0006C000020000034430EB5FDF731FE1F48BB
:1035C000FEF76EF839E00020009001900290FEF7BF
:1035D00077FEFFF7C3FF0646FCF784FF044622464A
:1035E0000B4617A16846FFF70DF96A460021084609
:1035F000FDF72CFEFFF79EFF0646FCF773FF04461F
:1036000022460B460EA16846FFF7FCF86A460121E8
:103610000020FDF71BFEFFF7B5FF0646FCF762FF33
:10362000044622460B4606A16846FFF7EBF86A46B9
:1036300002210020FDF70AFE00BFC4E70000484257
:10364000252E34660000000070B50546FDF710F821
:1036500041000446FF204908C005411AC90F07D0A0
:1036600069004908401AC00F02D10120FFF72CF968
:10367000204670BD21C80613200C00000000000089
:103680000000002F000000000700070000147F1456
:103690007F1400242A7F2A12006264081323003654
:1036A0004955225000000503000000001C22410083
:1036B000000041221C000014083E08140008083EC7
:1036C0000808000000A060000008080808080000C2
:1036D00060600000002010080402003E5149453E91
:1036E0000000427F400000426151494600214145AF
:1036F0004B31001814127F10002745454539003C16
:103700004A494930000171090503003649494936E3
:1037100000064949291E00003636000000005636D2
:1037200000000008142241000014141414140000B6
:103730004122140800020151090600324959513E44
:10374000007C1211127C007F49494936003E4141FC
:103750004122007F4141221C007F49494941007FAD
:1037600009090901003E4149497A007F0808087F9C
:103770000000417F4100002040413F01007F0814CC
:103780002241007F40404040007F020C027F007FCA
:103790000408107F003E4141413E007F09090906AF
:1037A000003E4151215E007F0919294600464949E2
:1037B00049310001017F0101003F4040403F001FAF
:1037C0002040201F003F4038403F0063140814632E
:1037D00000070870080700615149454300007F4118
:1037E000410000552A552A55000041417F00000440
:1037F0000201020400404040404000000102040079
:10380000002054545478007F4844443800384444DD
:10381000442000384444487F003854545418000869
:103820007E0901020018A4A4A47C007F0804047887
:103830000000447D4000004080847D00007F10280F
:1038400044000000417F4000007C04180478007CA4
:103850000804047800384444443800FC2424241824
:103860000018242418FC007C080404080048545460
:10387000542000043F444020003C4040207C001C79
:103880002040201C003C4030403C0044281028448C
:10389000001CA0A0A07C004464544C4414141414D4
:1038A00014140000C4380008000000207800000054
:1038B000A82800083C3900087800002018040000FF
:1038C000B82800080000FA3C006CDC020000000090
:1038D00000000000010203040607080900000000C0
:1038E00000000000000000000000000000000000D8
:1038F00000000000000000000000000000000000C8
:1039000000000000000000000000000000000000B7
:1039100000000000000000000000000000000000A7
:103920000000000000000000000000000000000097
:0C3930000000000000000000000000008B
:04000005080000C12E
:00000001FF
